{
  "address": "0x4337091F514fF8123bEFb8a67Ec3bF73D0B19385",
  "abi": [
    {
      "inputs": [],
      "stateMutability": "nonpayable",
      "type": "constructor"
    },
    {
      "inputs": [
        {
          "internalType": "bool",
          "name": "success",
          "type": "bool"
        },
        {
          "internalType": "bytes",
          "name": "ret",
          "type": "bytes"
        }
      ],
      "name": "DelegateAndRevert",
      "type": "error"
    },
    {
      "inputs": [
        {
          "internalType": "address",
          "name": "account",
          "type": "address"
        },
        {
          "internalType": "address",
          "name": "withdrawAddress",
          "type": "address"
        },
        {
          "internalType": "uint256",
          "name": "amount",
          "type": "uint256"
        },
        {
          "internalType": "bytes",
          "name": "revertReason",
          "type": "bytes"
        }
      ],
      "name": "DepositWithdrawalFailed",
      "type": "error"
    },
    {
      "inputs": [
        {
          "internalType": "address",
          "name": "sender",
          "type": "address"
        }
      ],
      "name": "Eip7702SenderNotDelegate",
      "type": "error"
    },
    {
      "inputs": [
        {
          "internalType": "address",
          "name": "sender",
          "type": "address"
        }
      ],
      "name": "Eip7702SenderWithoutCode",
      "type": "error"
    },
    {
      "inputs": [
        {
          "internalType": "uint256",
          "name": "opIndex",
          "type": "uint256"
        },
        {
          "internalType": "string",
          "name": "reason",
          "type": "string"
        }
      ],
      "name": "FailedOp",
      "type": "error"
    },
    {
      "inputs": [
        {
          "internalType": "uint256",
          "name": "opIndex",
          "type": "uint256"
        },
        {
          "internalType": "string",
          "name": "reason",
          "type": "string"
        },
        {
          "internalType": "bytes",
          "name": "inner",
          "type": "bytes"
        }
      ],
      "name": "FailedOpWithRevert",
      "type": "error"
    },
    {
      "inputs": [
        {
          "internalType": "address",
          "name": "beneficiary",
          "type": "address"
        },
        {
          "internalType": "uint256",
          "name": "amount",
          "type": "uint256"
        },
        {
          "internalType": "bytes",
          "name": "revertData",
          "type": "bytes"
        }
      ],
      "name": "FailedSendToBeneficiary",
      "type": "error"
    },
    {
      "inputs": [
        {
          "internalType": "uint256",
          "name": "currentDeposit",
          "type": "uint256"
        },
        {
          "internalType": "uint256",
          "name": "withdrawAmount",
          "type": "uint256"
        }
      ],
      "name": "InsufficientDeposit",
      "type": "error"
    },
    {
      "inputs": [],
      "name": "InternalFunction",
      "type": "error"
    },
    {
      "inputs": [
        {
          "internalType": "address",
          "name": "beneficiary",
          "type": "address"
        }
      ],
      "name": "InvalidBeneficiary",
      "type": "error"
    },
    {
      "inputs": [
        {
          "internalType": "address",
          "name": "paymaster",
          "type": "address"
        }
      ],
      "name": "InvalidPaymaster",
      "type": "error"
    },
    {
      "inputs": [
        {
          "internalType": "uint256",
          "name": "paymasterAndDataLength",
          "type": "uint256"
        }
      ],
      "name": "InvalidPaymasterData",
      "type": "error"
    },
    {
      "inputs": [
        {
          "internalType": "uint256",
          "name": "dataLength",
          "type": "uint256"
        },
        {
          "internalType": "uint256",
          "name": "pmSignatureLength",
          "type": "uint256"
        }
      ],
      "name": "InvalidPaymasterSignatureLength",
      "type": "error"
    },
    {
      "inputs": [],
      "name": "InvalidShortString",
      "type": "error"
    },
    {
      "inputs": [
        {
          "internalType": "uint256",
          "name": "msgValue",
          "type": "uint256"
        },
        {
          "internalType": "uint256",
          "name": "currentStake",
          "type": "uint256"
        }
      ],
      "name": "InvalidStake",
      "type": "error"
    },
    {
      "inputs": [
        {
          "internalType": "uint256",
          "name": "newUnstakeDelaySec",
          "type": "uint256"
        },
        {
          "internalType": "uint256",
          "name": "currentUnstakeDelaySec",
          "type": "uint256"
        }
      ],
      "name": "InvalidUnstakeDelay",
      "type": "error"
    },
    {
      "inputs": [
        {
          "internalType": "uint256",
          "name": "currentStake",
          "type": "uint256"
        },
        {
          "internalType": "uint256",
          "name": "unstakeDelaySec",
          "type": "uint256"
        },
        {
          "internalType": "bool",
          "name": "staked",
          "type": "bool"
        }
      ],
      "name": "NotStaked",
      "type": "error"
    },
    {
      "inputs": [
        {
          "internalType": "bytes",
          "name": "returnData",
          "type": "bytes"
        }
      ],
      "name": "PostOpReverted",
      "type": "error"
    },
    {
      "inputs": [],
      "name": "Reentrancy",
      "type": "error"
    },
    {
      "inputs": [
        {
          "internalType": "address",
          "name": "sender",
          "type": "address"
        }
      ],
      "name": "SenderAddressResult",
      "type": "error"
    },
    {
      "inputs": [
        {
          "internalType": "address",
          "name": "aggregator",
          "type": "address"
        }
      ],
      "name": "SignatureValidationFailed",
      "type": "error"
    },
    {
      "inputs": [
        {
          "internalType": "uint256",
          "name": "withdrawTime",
          "type": "uint256"
        },
        {
          "internalType": "uint256",
          "name": "blockTimestamp",
          "type": "uint256"
        }
      ],
      "name": "StakeNotUnlocked",
      "type": "error"
    },
    {
      "inputs": [
        {
          "internalType": "address",
          "name": "account",
          "type": "address"
        },
        {
          "internalType": "address",
          "name": "withdrawAddress",
          "type": "address"
        },
        {
          "internalType": "uint256",
          "name": "amount",
          "type": "uint256"
        },
        {
          "internalType": "bytes",
          "name": "revertReason",
          "type": "bytes"
        }
      ],
      "name": "StakeWithdrawalFailed",
      "type": "error"
    },
    {
      "inputs": [
        {
          "internalType": "string",
          "name": "str",
          "type": "string"
        }
      ],
      "name": "StringTooLong",
      "type": "error"
    },
    {
      "inputs": [
        {
          "internalType": "uint256",
          "name": "withdrawTime",
          "type": "uint256"
        },
        {
          "internalType": "uint256",
          "name": "blockTimestamp",
          "type": "uint256"
        }
      ],
      "name": "WithdrawalNotDue",
      "type": "error"
    },
    {
      "anonymous": false,
      "inputs": [
        {
          "indexed": true,
          "internalType": "bytes32",
          "name": "userOpHash",
          "type": "bytes32"
        },
        {
          "indexed": true,
          "internalType": "address",
          "name": "sender",
          "type": "address"
        },
        {
          "indexed": false,
          "internalType": "address",
          "name": "factory",
          "type": "address"
        },
        {
          "indexed": false,
          "internalType": "address",
          "name": "paymaster",
          "type": "address"
        }
      ],
      "name": "AccountDeployed",
      "type": "event"
    },
    {
      "anonymous": false,
      "inputs": [],
      "name": "BeforeExecution",
      "type": "event"
    },
    {
      "anonymous": false,
      "inputs": [
        {
          "indexed": true,
          "internalType": "address",
          "name": "account",
          "type": "address"
        },
        {
          "indexed": false,
          "internalType": "uint256",
          "name": "totalDeposit",
          "type": "uint256"
        }
      ],
      "name": "Deposited",
      "type": "event"
    },
    {
      "anonymous": false,
      "inputs": [],
      "name": "EIP712DomainChanged",
      "type": "event"
    },
    {
      "anonymous": false,
      "inputs": [
        {
          "indexed": true,
          "internalType": "bytes32",
          "name": "userOpHash",
          "type": "bytes32"
        },
        {
          "indexed": true,
          "internalType": "address",
          "name": "sender",
          "type": "address"
        },
        {
          "indexed": true,
          "internalType": "address",
          "name": "delegate",
          "type": "address"
        }
      ],
      "name": "EIP7702AccountInitialized",
      "type": "event"
    },
    {
      "anonymous": false,
      "inputs": [
        {
          "indexed": true,
          "internalType": "bytes32",
          "name": "userOpHash",
          "type": "bytes32"
        },
        {
          "indexed": true,
          "internalType": "address",
          "name": "sender",
          "type": "address"
        },
        {
          "indexed": false,
          "internalType": "address",
          "name": "unusedFactory",
          "type": "address"
        }
      ],
      "name": "IgnoredInitCode",
      "type": "event"
    },
    {
      "anonymous": false,
      "inputs": [
        {
          "indexed": true,
          "internalType": "bytes32",
          "name": "userOpHash",
          "type": "bytes32"
        },
        {
          "indexed": true,
          "internalType": "address",
          "name": "sender",
          "type": "address"
        },
        {
          "indexed": false,
          "internalType": "uint256",
          "name": "nonce",
          "type": "uint256"
        },
        {
          "indexed": false,
          "internalType": "bytes",
          "name": "revertReason",
          "type": "bytes"
        }
      ],
      "name": "PostOpRevertReason",
      "type": "event"
    },
    {
      "anonymous": false,
      "inputs": [
        {
          "indexed": true,
          "internalType": "address",
          "name": "aggregator",
          "type": "address"
        }
      ],
      "name": "SignatureAggregatorChanged",
      "type": "event"
    },
    {
      "anonymous": false,
      "inputs": [
        {
          "indexed": true,
          "internalType": "address",
          "name": "account",
          "type": "address"
        },
        {
          "indexed": false,
          "internalType": "uint256",
          "name": "totalStaked",
          "type": "uint256"
        },
        {
          "indexed": false,
          "internalType": "uint256",
          "name": "unstakeDelaySec",
          "type": "uint256"
        }
      ],
      "name": "StakeLocked",
      "type": "event"
    },
    {
      "anonymous": false,
      "inputs": [
        {
          "indexed": true,
          "internalType": "address",
          "name": "account",
          "type": "address"
        },
        {
          "indexed": false,
          "internalType": "uint256",
          "name": "withdrawTime",
          "type": "uint256"
        }
      ],
      "name": "StakeUnlocked",
      "type": "event"
    },
    {
      "anonymous": false,
      "inputs": [
        {
          "indexed": true,
          "internalType": "address",
          "name": "account",
          "type": "address"
        },
        {
          "indexed": false,
          "internalType": "address",
          "name": "withdrawAddress",
          "type": "address"
        },
        {
          "indexed": false,
          "internalType": "uint256",
          "name": "amount",
          "type": "uint256"
        }
      ],
      "name": "StakeWithdrawn",
      "type": "event"
    },
    {
      "anonymous": false,
      "inputs": [
        {
          "indexed": true,
          "internalType": "bytes32",
          "name": "userOpHash",
          "type": "bytes32"
        },
        {
          "indexed": true,
          "internalType": "address",
          "name": "sender",
          "type": "address"
        },
        {
          "indexed": true,
          "internalType": "address",
          "name": "paymaster",
          "type": "address"
        },
        {
          "indexed": false,
          "internalType": "uint256",
          "name": "nonce",
          "type": "uint256"
        },
        {
          "indexed": false,
          "internalType": "bool",
          "name": "success",
          "type": "bool"
        },
        {
          "indexed": false,
          "internalType": "uint256",
          "name": "actualGasCost",
          "type": "uint256"
        },
        {
          "indexed": false,
          "internalType": "uint256",
          "name": "actualGasUsed",
          "type": "uint256"
        }
      ],
      "name": "UserOperationEvent",
      "type": "event"
    },
    {
      "anonymous": false,
      "inputs": [
        {
          "indexed": true,
          "internalType": "bytes32",
          "name": "userOpHash",
          "type": "bytes32"
        },
        {
          "indexed": true,
          "internalType": "address",
          "name": "sender",
          "type": "address"
        },
        {
          "indexed": false,
          "internalType": "uint256",
          "name": "nonce",
          "type": "uint256"
        }
      ],
      "name": "UserOperationPrefundTooLow",
      "type": "event"
    },
    {
      "anonymous": false,
      "inputs": [
        {
          "indexed": true,
          "internalType": "bytes32",
          "name": "userOpHash",
          "type": "bytes32"
        },
        {
          "indexed": true,
          "internalType": "address",
          "name": "sender",
          "type": "address"
        },
        {
          "indexed": false,
          "internalType": "uint256",
          "name": "nonce",
          "type": "uint256"
        }
      ],
      "name": "UserOperationReserveBalanceViolated",
      "type": "event"
    },
    {
      "anonymous": false,
      "inputs": [
        {
          "indexed": true,
          "internalType": "bytes32",
          "name": "userOpHash",
          "type": "bytes32"
        },
        {
          "indexed": true,
          "internalType": "address",
          "name": "sender",
          "type": "address"
        },
        {
          "indexed": false,
          "internalType": "uint256",
          "name": "nonce",
          "type": "uint256"
        },
        {
          "indexed": false,
          "internalType": "bytes",
          "name": "revertReason",
          "type": "bytes"
        }
      ],
      "name": "UserOperationRevertReason",
      "type": "event"
    },
    {
      "anonymous": false,
      "inputs": [
        {
          "indexed": true,
          "internalType": "address",
          "name": "account",
          "type": "address"
        },
        {
          "indexed": false,
          "internalType": "address",
          "name": "withdrawAddress",
          "type": "address"
        },
        {
          "indexed": false,
          "internalType": "uint256",
          "name": "amount",
          "type": "uint256"
        }
      ],
      "name": "Withdrawn",
      "type": "event"
    },
    {
      "inputs": [
        {
          "internalType": "uint32",
          "name": "unstakeDelaySec",
          "type": "uint32"
        }
      ],
      "name": "addStake",
      "outputs": [],
      "stateMutability": "payable",
      "type": "function"
    },
    {
      "inputs": [
        {
          "internalType": "address",
          "name": "account",
          "type": "address"
        }
      ],
      "name": "balanceOf",
      "outputs": [
        {
          "internalType": "uint256",
          "name": "",
          "type": "uint256"
        }
      ],
      "stateMutability": "view",
      "type": "function"
    },
    {
      "inputs": [
        {
          "internalType": "address",
          "name": "target",
          "type": "address"
        },
        {
          "internalType": "bytes",
          "name": "data",
          "type": "bytes"
        }
      ],
      "name": "delegateAndRevert",
      "outputs": [],
      "stateMutability": "nonpayable",
      "type": "function"
    },
    {
      "inputs": [
        {
          "internalType": "address",
          "name": "account",
          "type": "address"
        }
      ],
      "name": "depositTo",
      "outputs": [],
      "stateMutability": "payable",
      "type": "function"
    },
    {
      "inputs": [],
      "name": "eip712Domain",
      "outputs": [
        {
          "internalType": "bytes1",
          "name": "fields",
          "type": "bytes1"
        },
        {
          "internalType": "string",
          "name": "name",
          "type": "string"
        },
        {
          "internalType": "string",
          "name": "version",
          "type": "string"
        },
        {
          "internalType": "uint256",
          "name": "chainId",
          "type": "uint256"
        },
        {
          "internalType": "address",
          "name": "verifyingContract",
          "type": "address"
        },
        {
          "internalType": "bytes32",
          "name": "salt",
          "type": "bytes32"
        },
        {
          "internalType": "uint256[]",
          "name": "extensions",
          "type": "uint256[]"
        }
      ],
      "stateMutability": "view",
      "type": "function"
    },
    {
      "inputs": [],
      "name": "getCurrentUserOpHash",
      "outputs": [
        {
          "internalType": "bytes32",
          "name": "",
          "type": "bytes32"
        }
      ],
      "stateMutability": "view",
      "type": "function"
    },
    {
      "inputs": [
        {
          "internalType": "address",
          "name": "account",
          "type": "address"
        }
      ],
      "name": "getDepositInfo",
      "outputs": [
        {
          "components": [
            {
              "internalType": "uint256",
              "name": "deposit",
              "type": "uint256"
            },
            {
              "internalType": "bool",
              "name": "staked",
              "type": "bool"
            },
            {
              "internalType": "uint112",
              "name": "stake",
              "type": "uint112"
            },
            {
              "internalType": "uint32",
              "name": "unstakeDelaySec",
              "type": "uint32"
            },
            {
              "internalType": "uint48",
              "name": "withdrawTime",
              "type": "uint48"
            }
          ],
          "internalType": "struct IStakeManager.DepositInfo",
          "name": "info",
          "type": "tuple"
        }
      ],
      "stateMutability": "view",
      "type": "function"
    },
    {
      "inputs": [],
      "name": "getDomainSeparatorV4",
      "outputs": [
        {
          "internalType": "bytes32",
          "name": "",
          "type": "bytes32"
        }
      ],
      "stateMutability": "view",
      "type": "function"
    },
    {
      "inputs": [
        {
          "internalType": "address",
          "name": "sender",
          "type": "address"
        },
        {
          "internalType": "uint192",
          "name": "key",
          "type": "uint192"
        }
      ],
      "name": "getNonce",
      "outputs": [
        {
          "internalType": "uint256",
          "name": "nonce",
          "type": "uint256"
        }
      ],
      "stateMutability": "view",
      "type": "function"
    },
    {
      "inputs": [],
      "name": "getPackedUserOpTypeHash",
      "outputs": [
        {
          "internalType": "bytes32",
          "name": "",
          "type": "bytes32"
        }
      ],
      "stateMutability": "pure",
      "type": "function"
    },
    {
      "inputs": [
        {
          "internalType": "bytes",
          "name": "initCode",
          "type": "bytes"
        }
      ],
      "name": "getSenderAddress",
      "outputs": [],
      "stateMutability": "nonpayable",
      "type": "function"
    },
    {
      "inputs": [
        {
          "components": [
            {
              "internalType": "address",
              "name": "sender",
              "type": "address"
            },
            {
              "internalType": "uint256",
              "name": "nonce",
              "type": "uint256"
            },
            {
              "internalType": "bytes",
              "name": "initCode",
              "type": "bytes"
            },
            {
              "internalType": "bytes",
              "name": "callData",
              "type": "bytes"
            },
            {
              "internalType": "bytes32",
              "name": "accountGasLimits",
              "type": "bytes32"
            },
            {
              "internalType": "uint256",
              "name": "preVerificationGas",
              "type": "uint256"
            },
            {
              "internalType": "bytes32",
              "name": "gasFees",
              "type": "bytes32"
            },
            {
              "internalType": "bytes",
              "name": "paymasterAndData",
              "type": "bytes"
            },
            {
              "internalType": "bytes",
              "name": "signature",
              "type": "bytes"
            }
          ],
          "internalType": "struct PackedUserOperation",
          "name": "userOp",
          "type": "tuple"
        }
      ],
      "name": "getUserOpHash",
      "outputs": [
        {
          "internalType": "bytes32",
          "name": "",
          "type": "bytes32"
        }
      ],
      "stateMutability": "view",
      "type": "function"
    },
    {
      "inputs": [
        {
          "components": [
            {
              "components": [
                {
                  "internalType": "address",
                  "name": "sender",
                  "type": "address"
                },
                {
                  "internalType": "uint256",
                  "name": "nonce",
                  "type": "uint256"
                },
                {
                  "internalType": "bytes",
                  "name": "initCode",
                  "type": "bytes"
                },
                {
                  "internalType": "bytes",
                  "name": "callData",
                  "type": "bytes"
                },
                {
                  "internalType": "bytes32",
                  "name": "accountGasLimits",
                  "type": "bytes32"
                },
                {
                  "internalType": "uint256",
                  "name": "preVerificationGas",
                  "type": "uint256"
                },
                {
                  "internalType": "bytes32",
                  "name": "gasFees",
                  "type": "bytes32"
                },
                {
                  "internalType": "bytes",
                  "name": "paymasterAndData",
                  "type": "bytes"
                },
                {
                  "internalType": "bytes",
                  "name": "signature",
                  "type": "bytes"
                }
              ],
              "internalType": "struct PackedUserOperation[]",
              "name": "userOps",
              "type": "tuple[]"
            },
            {
              "internalType": "contract IAggregator",
              "name": "aggregator",
              "type": "address"
            },
            {
              "internalType": "bytes",
              "name": "signature",
              "type": "bytes"
            }
          ],
          "internalType": "struct IEntryPoint.UserOpsPerAggregator[]",
          "name": "opsPerAggregator",
          "type": "tuple[]"
        },
        {
          "internalType": "address payable",
          "name": "beneficiary",
          "type": "address"
        }
      ],
      "name": "handleAggregatedOps",
      "outputs": [],
      "stateMutability": "nonpayable",
      "type": "function"
    },
    {
      "inputs": [
        {
          "components": [
            {
              "internalType": "address",
              "name": "sender",
              "type": "address"
            },
            {
              "internalType": "uint256",
              "name": "nonce",
              "type": "uint256"
            },
            {
              "internalType": "bytes",
              "name": "initCode",
              "type": "bytes"
            },
            {
              "internalType": "bytes",
              "name": "callData",
              "type": "bytes"
            },
            {
              "internalType": "bytes32",
              "name": "accountGasLimits",
              "type": "bytes32"
            },
            {
              "internalType": "uint256",
              "name": "preVerificationGas",
              "type": "uint256"
            },
            {
              "internalType": "bytes32",
              "name": "gasFees",
              "type": "bytes32"
            },
            {
              "internalType": "bytes",
              "name": "paymasterAndData",
              "type": "bytes"
            },
            {
              "internalType": "bytes",
              "name": "signature",
              "type": "bytes"
            }
          ],
          "internalType": "struct PackedUserOperation[]",
          "name": "ops",
          "type": "tuple[]"
        },
        {
          "internalType": "address payable",
          "name": "beneficiary",
          "type": "address"
        }
      ],
      "name": "handleOps",
      "outputs": [],
      "stateMutability": "nonpayable",
      "type": "function"
    },
    {
      "inputs": [
        {
          "internalType": "uint192",
          "name": "key",
          "type": "uint192"
        }
      ],
      "name": "incrementNonce",
      "outputs": [],
      "stateMutability": "nonpayable",
      "type": "function"
    },
    {
      "inputs": [
        {
          "internalType": "bytes",
          "name": "callData",
          "type": "bytes"
        },
        {
          "components": [
            {
              "components": [
                {
                  "internalType": "address",
                  "name": "sender",
                  "type": "address"
                },
                {
                  "internalType": "uint256",
                  "name": "nonce",
                  "type": "uint256"
                },
                {
                  "internalType": "uint256",
                  "name": "verificationGasLimit",
                  "type": "uint256"
                },
                {
                  "internalType": "uint256",
                  "name": "callGasLimit",
                  "type": "uint256"
                },
                {
                  "internalType": "uint256",
                  "name": "paymasterVerificationGasLimit",
                  "type": "uint256"
                },
                {
                  "internalType": "uint256",
                  "name": "paymasterPostOpGasLimit",
                  "type": "uint256"
                },
                {
                  "internalType": "uint256",
                  "name": "preVerificationGas",
                  "type": "uint256"
                },
                {
                  "internalType": "address",
                  "name": "paymaster",
                  "type": "address"
                },
                {
                  "internalType": "uint256",
                  "name": "maxFeePerGas",
                  "type": "uint256"
                },
                {
                  "internalType": "uint256",
                  "name": "maxPriorityFeePerGas",
                  "type": "uint256"
                }
              ],
              "internalType": "struct EntryPoint.MemoryUserOp",
              "name": "mUserOp",
              "type": "tuple"
            },
            {
              "internalType": "bytes32",
              "name": "userOpHash",
              "type": "bytes32"
            },
            {
              "internalType": "uint256",
              "name": "prefund",
              "type": "uint256"
            },
            {
              "internalType": "uint256",
              "name": "contextOffset",
              "type": "uint256"
            },
            {
              "internalType": "uint256",
              "name": "preOpGas",
              "type": "uint256"
            }
          ],
          "internalType": "struct EntryPoint.UserOpInfo",
          "name": "opInfo",
          "type": "tuple"
        },
        {
          "internalType": "bytes",
          "name": "context",
          "type": "bytes"
        }
      ],
      "name": "innerHandleOp",
      "outputs": [
        {
          "internalType": "uint256",
          "name": "actualGasCost",
          "type": "uint256"
        }
      ],
      "stateMutability": "nonpayable",
      "type": "function"
    },
    {
      "inputs": [
        {
          "internalType": "address",
          "name": "",
          "type": "address"
        },
        {
          "internalType": "uint192",
          "name": "",
          "type": "uint192"
        }
      ],
      "name": "nonceSequenceNumber",
      "outputs": [
        {
          "internalType": "uint256",
          "name": "",
          "type": "uint256"
        }
      ],
      "stateMutability": "view",
      "type": "function"
    },
    {
      "inputs": [],
      "name": "senderCreator",
      "outputs": [
        {
          "internalType": "contract ISenderCreator",
          "name": "",
          "type": "address"
        }
      ],
      "stateMutability": "view",
      "type": "function"
    },
    {
      "inputs": [
        {
          "internalType": "bytes4",
          "name": "interfaceId",
          "type": "bytes4"
        }
      ],
      "name": "supportsInterface",
      "outputs": [
        {
          "internalType": "bool",
          "name": "",
          "type": "bool"
        }
      ],
      "stateMutability": "view",
      "type": "function"
    },
    {
      "inputs": [],
      "name": "unlockStake",
      "outputs": [],
      "stateMutability": "nonpayable",
      "type": "function"
    },
    {
      "inputs": [
        {
          "internalType": "address payable",
          "name": "withdrawAddress",
          "type": "address"
        }
      ],
      "name": "withdrawStake",
      "outputs": [],
      "stateMutability": "nonpayable",
      "type": "function"
    },
    {
      "inputs": [
        {
          "internalType": "address payable",
          "name": "withdrawAddress",
          "type": "address"
        },
        {
          "internalType": "uint256",
          "name": "withdrawAmount",
          "type": "uint256"
        }
      ],
      "name": "withdrawTo",
      "outputs": [],
      "stateMutability": "nonpayable",
      "type": "function"
    },
    {
      "stateMutability": "payable",
      "type": "receive"
    }
  ],
  "transactionHash": "0x16f268fa93bb14e7020e7922831d669519e4304cb9875f91c77a07be3198351f",
  "args": [],
  "numDeployments": 2,
  "solcInputHash": "6ad76da3d5cfe93fc29bff2e7a77968b",
  "bytecode": "0x6101806040523461019557604051610018604082610199565b600781526020810190664552433433333760c81b82526040519161003d604084610199565b600183526020830191603160f81b8352610056816101bc565b6101205261006384610357565b61014052519020918260e05251902080610100524660a0526040519060208201927f8b73c3c69bb8fe3d512ecc4cf759cc79239f7b179b0ffacaa9a75d522b39400f8452604083015260608201524660808201523060a082015260a081526100cc60c082610199565b5190206080523060c0526040516104ee8082016001600160401b03811183821017610181578291615d72833903905ff0801561017657610160526040516158e290816104908239608051816134fa015260a051816135b7015260c051816134cb015260e051816135490152610100518161356f015261012051816118750152610140518161189e0152610160518181816116bf015281816120560152818161545501526157330152f35b6040513d5f823e3d90fd5b634e487b7160e01b5f52604160045260245ffd5b5f80fd5b601f909101601f19168101906001600160401b0382119082101761018157604052565b908151602081105f14610236575090601f8151116101f65760208151910151602082106101e7571790565b5f198260200360031b1b161790565b604460209160405192839163305a27a960e01b83528160048401528051918291826024860152018484015e5f828201840152601f01601f19168101030190fd5b6001600160401b03811161018157600254600181811c9116801561034d575b602082101461033957601f8111610306575b50602092601f82116001146102a557928192935f9261029a575b50508160011b915f199060031b1c19161760025560ff90565b015190505f80610281565b601f1982169360025f52805f20915f5b8681106102ee57508360019596106102d6575b505050811b0160025560ff90565b01515f1960f88460031b161c191690555f80806102c8565b919260206001819286850151815501940192016102b5565b60025f52601f60205f20910160051c810190601f830160051c015b81811061032e5750610267565b5f8155600101610321565b634e487b7160e01b5f52602260045260245ffd5b90607f1690610255565b908151602081105f14610382575090601f8151116101f65760208151910151602082106101e7571790565b6001600160401b03811161018157600354600181811c91168015610485575b602082101461033957601f8111610452575b50602092601f82116001146103f157928192935f926103e6575b50508160011b915f199060031b1c19161760035560ff90565b015190505f806103cd565b601f1982169360035f52805f20915f5b86811061043a5750836001959610610422575b505050811b0160035560ff90565b01515f1960f88460031b161c191690555f8080610414565b91926020600181928685015181550194019201610401565b60035f52601f60205f20910160051c810190601f830160051c015b81811061047a57506103b3565b5f815560010161046d565b90607f16906103a156fe6101606040526004361015610024575b3615610019575f80fd5b61002233613100565b005b5f610140525f3560e01c806242dc531461242b57806301ffc9a7146122d95780630396cb601461207a57806309ccb880146120095780630bd28e3b14611f6d57806313c65a6e14611f32578063154e58dc14611ed75780631b2e01b814611e41578063205c287814611cf257806322cdde4c14611c6e57806335567e1a14611bb45780635287ce1214611a9457806370a0823114611a29578063765e827f1461197c57806384b0196e1461183c578063850aaf62146117775780639b249f6914611613578063b0a398d1146115d3578063b760faf914611599578063bb9fe6bf14611443578063c23a5cea146112635763dbed18e00361000f5734610fd25761012c36612b9d565b6101005260e0523332148061125a575b1561122c576101405190815b60e051811061100b575061015b82612f46565b61012052610140516080526101405160c0525b60e05160c05110610286577fbb47ee3e183a558b1a2ff0874b079f3fc5478b7454eacf2bfc5af2ff5878f9726101405161014051a161014051608081905290815b60e05181106101cc576101c58361010051614ab7565b6101405180f35b61022e6101dc8260e051856131c8565b73ffffffffffffffffffffffffffffffffffffffff6101fd6020830161325c565b167f575ff3acadd5ab348fe1855e217e0f3678f8d767d7494c9f9fefbee2e17cca4d6101405161014051a280613208565b9061014051915b808310610247575050506001016101af565b90919460019061027461025b888587613015565b61026a60805161012051613082565b5190608051614373565b01958160805101608052019190610235565b61029560c05160e051836131c8565b73ffffffffffffffffffffffffffffffffffffffff6102c360206102b98480613208565b60a052930161325c565b61014051911691905b60a05181106102f05750505060a05160805101608052600160c0510160c05261016e565b610301816080510161012051613082565b5161030f8260a05185613015565b61014051915a81519273ffffffffffffffffffffffffffffffffffffffff6103368261325c565b168452602081810135908501526fffffffffffffffffffffffffffffffff6080808301358281166060880152811c604087015260a083013560c0808801919091528301359182166101008701521c61012085015261039760e082018261327d565b9081610f31575b5050604051936103ad82612df5565b6020850152846040526040810151946effffffffffffffffffffffffffffff8660c08401511760608401511760808401511760a084015117610100840151176101208401511711610ecb5750604081015160608201510160808201510160a08201510160c0820151016101008201510294856040860152845173ffffffffffffffffffffffffffffffffffffffff60e08183511692610460898d61045460408b018b61327d565b92909160805101615399565b0151169661014051978015610e9a575b87516040810151905173ffffffffffffffffffffffffffffffffffffffff169061014051506040519a8b8960208d01519260208301937f19822f7c00000000000000000000000000000000000000000000000000000000855260248401926104d793615858565b037fffffffffffffffffffffffffffffffffffffffffffffffffffffffffffffffe081018d52610507908d612a74565b61014051908c5190846101405190602095f161014051519a3d602003610e8f575b60405215610d9c575015610d1e575b505073ffffffffffffffffffffffffffffffffffffffff825116602083015190610140515260016020526040610140512077ffffffffffffffffffffffffffffffffffffffffffffffff8260401c165f5260205267ffffffffffffffff60405f20918254926105a584612d51565b90551603610cb5575a840311610c4c5760e0015160609073ffffffffffffffffffffffffffffffffffffffff166108f0575b73ffffffffffffffffffffffffffffffffffffffff949260a08593608093606061060c9801520135905a900301910152615105565b929091168603610887576107b3575061063973ffffffffffffffffffffffffffffffffffffffff91615105565b9290911661074a5761064e57506001016102cc565b6106e15760a490604051907f220266b600000000000000000000000000000000000000000000000000000000825260805101600482015260406024820152602160448201527f41413332207061796d61737465722065787069726564206f72206e6f7420647560648201527f65000000000000000000000000000000000000000000000000000000000000006084820152fd5b608490604051907f220266b600000000000000000000000000000000000000000000000000000000825260805101600482015260406024820152602060448201527f41413337207061796d617374657220696e76616c20626c6f636b2072616e67656064820152fd5b608483604051907f220266b600000000000000000000000000000000000000000000000000000000825260805101600482015260406024820152601460448201527f41413334207369676e6174757265206572726f720000000000000000000000006064820152fd5b8260849161082157604051907f220266b600000000000000000000000000000000000000000000000000000000825260805101600482015260406024820152601760448201527f414132322065787069726564206f72206e6f74206475650000000000000000006064820152fd5b604051907f220266b600000000000000000000000000000000000000000000000000000000825260805101600482015260406024820152601e60448201527f41413237206f7574736964652076616c696420626c6f636b2072616e676500006064820152fd5b608484604051907f220266b600000000000000000000000000000000000000000000000000000000825260805101600482015260406024820152601460448201527f41413234207369676e6174757265206572726f720000000000000000000000006064820152fd5b9897969594505a9883519961092473ffffffffffffffffffffffffffffffffffffffff60e08d01511660408701519061587a565b15610be35760807f52b7512c000000000000000000000000000000000000000000000000000000009798999a9b01516040516109a58161097960208a015160408b015190602084019d8e528960248501615858565b037fffffffffffffffffffffffffffffffffffffffffffffffffffffffffffffffe08101835282612a74565b8651608073ffffffffffffffffffffffffffffffffffffffff60e08301511691015161014051918b61014051928551926101405191f1983d908161014051843e519482519a604084019b8c519115610b615760401490811591610b2f575b50610aaa5750601f7fffffffffffffffffffffffffffffffffffffffffffffffffffffffffffffffe09101160191826040525a900311610a445750946105d7565b80887f220266b6000000000000000000000000000000000000000000000000000000006084935260805101600482015260406024820152602060448201527f41413336206f76657220706d566572696669636174696f6e4761734c696d69746064820152fd5b8b610b2b610ab66133ff565b6040519384937f65c8fd4d0000000000000000000000000000000000000000000000000000000085526080510160048501526024840152601d60648401527f41413335206d616c666f726d6564207061796d61737465722064617461000000608484015260a0604484015260a4830190612c30565b0390fd5b7fffffffffffffffffffffffffffffffffffffffffffffffffffffffffffffffe09150601f011681018214155f610a03565b828e610b2b610b6e6133ff565b6040519384937f65c8fd4d0000000000000000000000000000000000000000000000000000000085526080510160048501526024840152600d60648401527f4141333320726576657274656400000000000000000000000000000000000000608484015260a0604484015260a4830190612c30565b608487604051907f220266b600000000000000000000000000000000000000000000000000000000825260805101600482015260406024820152601e60448201527f41413331207061796d6173746572206465706f73697420746f6f206c6f7700006064820152fd5b608487604051907f220266b600000000000000000000000000000000000000000000000000000000825260805101600482015260406024820152601e60448201527f41413236206f76657220766572696669636174696f6e4761734c696d697400006064820152fd5b608488604051907f220266b600000000000000000000000000000000000000000000000000000000825260805101600482015260406024820152601a60448201527f4141323520696e76616c6964206163636f756e74206e6f6e63650000000000006064820152fd5b610d279161587a565b15610d33578b80610537565b608488604051907f220266b600000000000000000000000000000000000000000000000000000000825260805101600482015260406024820152601760448201527f41413231206469646e2774207061792070726566756e640000000000000000006064820152fd5b8b903b610e0c57608490604051907f220266b600000000000000000000000000000000000000000000000000000000825260805101600482015260406024820152601960448201527f41413230206163636f756e74206e6f74206465706c6f796564000000000000006064820152fd5b610e146133ff565b90610b2b6040519283927f65c8fd4d00000000000000000000000000000000000000000000000000000000845260805101600484015260606024840152600d60648401527f4141323320726576657274656400000000000000000000000000000000000000608484015260a0604484015260a4830190612c30565b610140519150610528565b6101408051849052516020819052604090205490985081811115610ec45750610140515b97610470565b8103610ebe565b80887f220266b6000000000000000000000000000000000000000000000000000000006084935260805101600482015260406024820152601860448201527f41413934206761732076616c756573206f766572666c6f7700000000000000006064820152fd5b60348210610fd95781601411610fd25780359160248110610fd257603411610fd2576024810135608090811c60a0880152601490910135811c90860152606081901c15610f875760601c60e0850152898061039e565b73ffffffffffffffffffffffffffffffffffffffff907fd8ccb29200000000000000000000000000000000000000000000000000000000610140515260601c16600452602461014051fd5b6101405180fd5b507f120aaab5000000000000000000000000000000000000000000000000000000006101405152600452602461014051fd5b6110188160e051846131c8565b926110238480613208565b919073ffffffffffffffffffffffffffffffffffffffff6110466020880161325c565b1695600187146111fa5786611063575b5050019250600101610148565b80604061107192019061327d565b91873b15610fd257916040519283917f2dd8113300000000000000000000000000000000000000000000000000000000835286604484016040600486015252606483019160648860051b8501019281610140517ffffffffffffffffffffffffffffffffffffffffffffffffffffffffffffffee182360301915b8b82106111a057505050505081611131917ffffffffffffffffffffffffffffffffffffffffffffffffffffffffffffffffc8580950301602485015261014051956130c2565b0381610140518a5af19081611185575b5061117857847f86a9f750000000000000000000000000000000000000000000000000000000006101405152600452602461014051fd5b929350839260015f611056565b6101405161119291612a74565b61014051610fd2575f611141565b9193967fffffffffffffffffffffffffffffffffffffffffffffffffffffffffffffff9c90879294969703018552863584811215610fd25760206111e96001938583940161331e565b9801950192018896959493916110eb565b867f86a9f750000000000000000000000000000000000000000000000000000000006101405152600452602461014051fd5b7fab143c06000000000000000000000000000000000000000000000000000000006101405152600461014051fd5b50333b1561013c565b34610fd25760207ffffffffffffffffffffffffffffffffffffffffffffffffffffffffffffffffc360112610fd25761129a612b25565b33610140515261014051602052600160406101405120019081549165ffffffffffff6dffffffffffffffffffffffffffff8460081c16936112eb60ff821663ffffffff8360781c1687801515613173565b60981c16801561140e574281116113d9575080547fffffffffffffff000000000000000000000000000000000000000000000000ff1690556040805173ffffffffffffffffffffffffffffffffffffffff831681526020810184905233917fb7c918e0e249f999e965cafeb6c664271b3f4317d296461500e71da39f0cbda391a2610140518080808573ffffffffffffffffffffffffffffffffffffffff86165af1611395612d8b565b90156113a2576101405180f35b610b2b906040519384937f0dcf087c0000000000000000000000000000000000000000000000000000000085523360048601612dba565b7f561d331200000000000000000000000000000000000000000000000000000000610140515260045242602452604461014051fd5b7ffbd021d600000000000000000000000000000000000000000000000000000000610140515260045242602452604461014051fd5b34610fd257610140517ffffffffffffffffffffffffffffffffffffffffffffffffffffffffffffffffc360112610fd257336101405152610140516020526001604061014051200180546114c963ffffffff8260781c16918260ff6dffffffffffffffffffffffffffff8360081c169216916114c3838383811515613173565b82613173565b65ffffffffffff4216019065ffffffffffff82116115665780547fffffffffffffff000000000000ffffffffffffffffffffffffffffffffffff001678ffffffffffff00000000000000000000000000000000000000609884901b1617905560405165ffffffffffff909116815233907ffa9b3c14cc825c412c9ed81b3ba365a5b459439403f18829e572ed53a4180f0a90602090a26101405180f35b7f4e487b710000000000000000000000000000000000000000000000000000000061014051526011600452602461014051fd5b60207ffffffffffffffffffffffffffffffffffffffffffffffffffffffffffffffffc360112610fd2576101c56115ce612b25565b613100565b34610fd257610140517ffffffffffffffffffffffffffffffffffffffffffffffffffffffffffffffffc360112610fd2576020610140515c604051908152f35b34610fd25760207ffffffffffffffffffffffffffffffffffffffffffffffffffffffffffffffffc360112610fd25760043567ffffffffffffffff8111610fd25760206116676116a2923690600401612b48565b60405193849283927f570e1a3600000000000000000000000000000000000000000000000000000000845285600485015260248401916130c2565b03816101405173ffffffffffffffffffffffffffffffffffffffff7f0000000000000000000000000000000000000000000000000000000000000000165af180156117695773ffffffffffffffffffffffffffffffffffffffff91610140519161173a575b507f6ca7b80600000000000000000000000000000000000000000000000000000000610140515216600452602461014051fd5b61175c915060203d602011611762575b6117548183612a74565b810190613096565b82611707565b503d61174a565b6040513d61014051823e3d90fd5b34610fd25760407ffffffffffffffffffffffffffffffffffffffffffffffffffffffffffffffffc360112610fd2576117ae612b25565b60243567ffffffffffffffff8111610fd2576117ce903690600401612b48565b604051929181908437820190610140518252610140519280610140519303915af46117f7612d8b565b90610b2b6040519283927f9941055400000000000000000000000000000000000000000000000000000000845215156004840152604060248401526044830190612c30565b34610fd257610140517ffffffffffffffffffffffffffffffffffffffffffffffffffffffffffffffffc360112610fd25761191a6118997f0000000000000000000000000000000000000000000000000000000000000000614e09565b6118c27f0000000000000000000000000000000000000000000000000000000000000000614f7f565b60405190602090611928906118d78385612a74565b6101405184525f3681376040519586957f0f00000000000000000000000000000000000000000000000000000000000000875260e08588015260e0870190612c30565b908582036040870152612c30565b4660608501523060808501526101405160a085015283810360c0850152818084519283815201930191610140515b82811061196557505050500390f35b835185528695509381019392810192600101611956565b34610fd25761198a36612b9d565b91909133321480611a20575b1561122c576119a483612f46565b6119af818585613713565b5061014051927fbb47ee3e183a558b1a2ff0874b079f3fc5478b7454eacf2bfc5af2ff5878f9728480a161014051915b8583106119f0576101c58585614ab7565b909193600190611a16611a04878987613015565b611a0e8886613082565b519088614373565b01940191906119df565b50333b15611996565b34610fd25760207ffffffffffffffffffffffffffffffffffffffffffffffffffffffffffffffffc360112610fd25773ffffffffffffffffffffffffffffffffffffffff611a75612b25565b1661014051526101405160205260206040610140512054604051908152f35b34610fd25760207ffffffffffffffffffffffffffffffffffffffffffffffffffffffffffffffffc360112610fd25773ffffffffffffffffffffffffffffffffffffffff611ae0612b25565b604051611aec816129f2565b6101405181526101405160208201526101405160408201526101405160608201526080610140519101521661014051526101405160205260a06040610140512065ffffffffffff604051611b3f816129f2565b63ffffffff60018454948584520154916dffffffffffffffffffffffffffff6020820160ff8516151581526040830190828660081c1682528660806060860195878960781c168752019660981c1686526040519788525115156020880152511660408601525116606084015251166080820152f35b34610fd25760407ffffffffffffffffffffffffffffffffffffffffffffffffffffffffffffffffc360112610fd2576020611bed612b25565b73ffffffffffffffffffffffffffffffffffffffff611c0a612b76565b91166101405152600182526040610140512077ffffffffffffffffffffffffffffffffffffffffffffffff82165f52825260405f20547fffffffffffffffffffffffffffffffffffffffffffffffff00000000000000006040519260401b16178152f35b34610fd25760207ffffffffffffffffffffffffffffffffffffffffffffffffffffffffffffffffc360112610fd25760043567ffffffffffffffff8111610fd2576101207ffffffffffffffffffffffffffffffffffffffffffffffffffffffffffffffffc8236030112610fd257611cea602091600401612df5565b604051908152f35b34610fd25760407ffffffffffffffffffffffffffffffffffffffffffffffffffffffffffffffffc360112610fd257611d29612b25565b602435903361014051526101405160205260406101405120828154808211611e0d5790611d5591612d7e565b90556040805173ffffffffffffffffffffffffffffffffffffffff831681526020810184905233917fd1c19fbcd4551a5edfb66d43d2e337c04837afda3482b42bdf569a8fccdae5fb91a2610140518080808573ffffffffffffffffffffffffffffffffffffffff86165af1611dc9612d8b565b9015611dd6576101405180f35b610b2b906040519384937f9f3d69330000000000000000000000000000000000000000000000000000000085523360048601612dba565b7f25c3f46e000000000000000000000000000000000000000000000000000000006101405152600452602452604461014051fd5b34610fd25760407ffffffffffffffffffffffffffffffffffffffffffffffffffffffffffffffffc360112610fd257611e78612b25565b73ffffffffffffffffffffffffffffffffffffffff611e95612b76565b91166101405152600160205277ffffffffffffffffffffffffffffffffffffffffffffffff6040610140512091165f52602052602060405f2054604051908152f35b34610fd257610140517ffffffffffffffffffffffffffffffffffffffffffffffffffffffffffffffffc360112610fd25760206040517f29a0bca4af4be3421398da00295e58e6d7de38cb492214754cb6a47507dd6f8e8152f35b34610fd257610140517ffffffffffffffffffffffffffffffffffffffffffffffffffffffffffffffffc360112610fd2576020611cea6134b4565b34610fd25760207ffffffffffffffffffffffffffffffffffffffffffffffffffffffffffffffffc360112610fd25760043577ffffffffffffffffffffffffffffffffffffffffffffffff81168103610fd257336101405152600160205277ffffffffffffffffffffffffffffffffffffffffffffffff6040610140512091165f5260205260405f206120008154612d51565b90556101405180f35b34610fd257610140517ffffffffffffffffffffffffffffffffffffffffffffffffffffffffffffffffc360112610fd257602060405173ffffffffffffffffffffffffffffffffffffffff7f0000000000000000000000000000000000000000000000000000000000000000168152f35b60207ffffffffffffffffffffffffffffffffffffffffffffffffffffffffffffffffc360112610fd25760043563ffffffff8116808203610fd257336101405152610140516020526122a16dffffffffffffffffffffffffffff604061014051209361210660018601549163ffffffff8360781c16906120fd8282891515612c8d565b81871015612c8d565b60081c169261213e6121183486612cce565b946121268134881515612d08565b346dffffffffffffffffffffffffffff871115612d08565b546040519061214c826129f2565b815265ffffffffffff602082019160018352604081016dffffffffffffffffffffffffffff87168152606082019086825260016080840193610140518552336101405152610140516020526040610140512090518155019451151560ff7fffffffffffffffffffffffffffffffffffffffffffffffffffffffffffffff008754169116178555517fffffffffffffffffffffffffffffffffff0000000000000000000000000000ff6effffffffffffffffffffffffffff008087549360081b16169116178455517fffffffffffffffffffffffffff00000000ffffffffffffffffffffffffffffff72ffffffff0000000000000000000000000000008086549360781b1616911617835551167fffffffffffffff000000000000ffffffffffffffffffffffffffffffffffffff78ffffffffffff0000000000000000000000000000000000000083549260981b169116179055565b60405191825260208201527fa5ae833d0bb1dcd632d98a8b70973e8516812898e19bf27b70071ebc8dc52c0160403392a26101405180f35b34610fd25760207ffffffffffffffffffffffffffffffffffffffffffffffffffffffffffffffffc360112610fd2576004357fffffffff000000000000000000000000000000000000000000000000000000008116809103610fd257807fd9934b3f0000000000000000000000000000000000000000000000000000000060209214908115612401575b81156123d7575b81156123ad575b8115612383575b506040519015158152f35b7f01ffc9a70000000000000000000000000000000000000000000000000000000091501482612378565b7f3e84f0210000000000000000000000000000000000000000000000000000000081149150612371565b7fcf28ef97000000000000000000000000000000000000000000000000000000008114915061236a565b7f283f54890000000000000000000000000000000000000000000000000000000081149150612363565b3461288e576102007ffffffffffffffffffffffffffffffffffffffffffffffffffffffffffffffffc36011261288e5760043567ffffffffffffffff811161288e573660238201121561288e5761248c903690602481600401359101612aef565b7fffffffffffffffffffffffffffffffffffffffffffffffffffffffffffffffdc36016101c0811261288e57610140604051916124c8836129f2565b1261288e576040516124d981612a3b565b60243573ffffffffffffffffffffffffffffffffffffffff8116810361288e57815260443560208201526064356040820152608435606082015260a435608082015260c43560a082015260e43560c08201526101043573ffffffffffffffffffffffffffffffffffffffff8116810361288e5760e082015261012435610100820152610144356101208201528152602081019161016435835260408201906101843582526101a435606084015260808301916101c43583526101e43567ffffffffffffffff811161288e576125b2903690600401612b48565b95905a913033036129ca5786516060810151603f5a0260061c61271060a0840151830101116129a2575f968051806128ef575b50505050506125f261342c565b6128c757612608915a9003855101963691612aef565b925a93855161010081015161012082015148018082105f146128bf5750975b61265473ffffffffffffffffffffffffffffffffffffffff60e08401511694518203606084015190614b64565b01925f928161276a5750505173ffffffffffffffffffffffffffffffffffffffff16945b5a900301019485029051928184105f1461271657505060038110156126e3576002036126b55760209281611cea92936126b081614c80565b614b7e565b7fdeadaa51000000000000000000000000000000000000000000000000000000006101405152602061014051fd5b7f4e487b710000000000000000000000000000000000000000000000000000000061014051526021600452602461014051fd5b8161274c929594969396039073ffffffffffffffffffffffffffffffffffffffff165f525f60205260405f209081540180915590565b5060038410156126e35782612765926020951590614bff565b611cea565b90969187825161277d575b505050612678565b90919293505a92600388101561289257600288036127b3575b505060a06127aa925a900391015190614b64565b90888080612775565b60a083015191803b1561288e578b925f928361280f938c8b88604051998a98899788957f7c627b210000000000000000000000000000000000000000000000000000000087526004870152608060248701526084860190612c30565b9202604484015260648301520393f19081612879575b5061286f57610b2b6128356133ff565b6040519182917fad7954bc000000000000000000000000000000000000000000000000000000008352602060048401526024830190612c30565b60a06127aa612796565b5f61288391612a74565b5f610140528a612825565b5f80fd5b7f4e487b71000000000000000000000000000000000000000000000000000000005f52602160045260245ffd5b905097612627565b7fdeadba51000000000000000000000000000000000000000000000000000000005f5260205ffd5b5f92838093602073ffffffffffffffffffffffffffffffffffffffff885116910192f115612920575b8080806125e5565b6040519295509061292f6133ff565b908151612947575b5050506040526001928780612918565b7f1c4fada7374c0a9ee8841fc38afe82932dc0f8e69012e927f061a8bae611a201905191602073ffffffffffffffffffffffffffffffffffffffff85511694015161299760405192839283612c73565b0390a3878080612937565b7fdeaddead000000000000000000000000000000000000000000000000000000005f5260205ffd5b7f9fbdaa09000000000000000000000000000000000000000000000000000000005f5260045ffd5b60a0810190811067ffffffffffffffff821117612a0e57604052565b7f4e487b71000000000000000000000000000000000000000000000000000000005f52604160045260245ffd5b610140810190811067ffffffffffffffff821117612a0e57604052565b6060810190811067ffffffffffffffff821117612a0e57604052565b90601f7fffffffffffffffffffffffffffffffffffffffffffffffffffffffffffffffe0910116810190811067ffffffffffffffff821117612a0e57604052565b67ffffffffffffffff8111612a0e57601f017fffffffffffffffffffffffffffffffffffffffffffffffffffffffffffffffe01660200190565b929192612afb82612ab5565b91612b096040519384612a74565b82948184528183011161288e578281602093845f960137010152565b6004359073ffffffffffffffffffffffffffffffffffffffff8216820361288e57565b9181601f8401121561288e5782359167ffffffffffffffff831161288e576020838186019501011161288e57565b6024359077ffffffffffffffffffffffffffffffffffffffffffffffff8216820361288e57565b9060407ffffffffffffffffffffffffffffffffffffffffffffffffffffffffffffffffc83011261288e5760043567ffffffffffffffff811161288e5760040182601f8201121561288e5780359267ffffffffffffffff841161288e576020808301928560051b01011161288e57919060243573ffffffffffffffffffffffffffffffffffffffff8116810361288e5790565b907fffffffffffffffffffffffffffffffffffffffffffffffffffffffffffffffe0601f602080948051918291828752018686015e5f8582860101520116010190565b604090612c8a939281528160208201520190612c30565b90565b15612c96575050565b9063ffffffff80927fe1823bce000000000000000000000000000000000000000000000000000000005f52166004521660245260445ffd5b91908201809211612cdb57565b7f4e487b71000000000000000000000000000000000000000000000000000000005f52601160045260245ffd5b15612d11575050565b6dffffffffffffffffffffffffffff92507f0e10009c000000000000000000000000000000000000000000000000000000005f526004521660245260445ffd5b7fffffffffffffffffffffffffffffffffffffffffffffffffffffffffffffffff8114612cdb5760010190565b91908203918211612cdb57565b3d15612db5573d90612d9c82612ab5565b91612daa6040519384612a74565b82523d5f602084013e565b606090565b909273ffffffffffffffffffffffffffffffffffffffff60809381612c8a979616845216602083015260408201528160608201520190612c30565b604290612e01816135f5565b612e096134b4565b91612e138161325c565b918015612f1157905b60c0612e2b606083018361327d565b90816040519182372091612e4b612e4560e083018361327d565b9061504f565b926040519473ffffffffffffffffffffffffffffffffffffffff60208701977f29a0bca4af4be3421398da00295e58e6d7de38cb492214754cb6a47507dd6f8e895216604087015260208301356060870152608086015260a085015260808101358285015260a081013560e085015201356101008301526101208201526101208152612ed961014082612a74565b519020604051917f19010000000000000000000000000000000000000000000000000000000000008352600283015260228201522090565b50612f1f604082018261327d565b90816040519182372090612e1c565b67ffffffffffffffff8111612a0e5760051b60200190565b90612f5082612f2e565b612f5d6040519182612a74565b8281527fffffffffffffffffffffffffffffffffffffffffffffffffffffffffffffffe0612f8b8294612f2e565b01905f5b828110612f9b57505050565b602090604051612faa816129f2565b604051612fb681612a3b565b5f81525f848201525f60408201525f60608201525f60808201525f60a08201525f60c08201525f60e08201525f6101008201525f61012082015281525f838201525f60408201525f60608201525f608082015282828501015201612f8f565b91908110156130555760051b810135907ffffffffffffffffffffffffffffffffffffffffffffffffffffffffffffffee18136030182121561288e570190565b7f4e487b71000000000000000000000000000000000000000000000000000000005f52603260045260245ffd5b80518210156130555760209160051b010190565b9081602091031261288e575173ffffffffffffffffffffffffffffffffffffffff8116810361288e5790565b601f82602094937fffffffffffffffffffffffffffffffffffffffffffffffffffffffffffffffe093818652868601375f8582860101520116010190565b7f2da466a7b24304f47e87fa2e1e5a81b9831ce54fec19055ce277ca2f39ba42c4602073ffffffffffffffffffffffffffffffffffffffff613167348573ffffffffffffffffffffffffffffffffffffffff165f525f60205260405f209081540180915590565b936040519485521692a2565b1561317d57505050565b906dffffffffffffffffffffffffffff63ffffffff927f8421e8e5000000000000000000000000000000000000000000000000000000005f521660045216602452151560445260645ffd5b91908110156130555760051b810135907fffffffffffffffffffffffffffffffffffffffffffffffffffffffffffffffa18136030182121561288e570190565b9035907fffffffffffffffffffffffffffffffffffffffffffffffffffffffffffffffe18136030182121561288e570180359067ffffffffffffffff821161288e57602001918160051b3603831361288e57565b3573ffffffffffffffffffffffffffffffffffffffff8116810361288e5790565b9035907fffffffffffffffffffffffffffffffffffffffffffffffffffffffffffffffe18136030182121561288e570180359067ffffffffffffffff821161288e5760200191813603831361288e57565b90357fffffffffffffffffffffffffffffffffffffffffffffffffffffffffffffffe18236030181121561288e57016020813591019167ffffffffffffffff821161288e57813603831361288e57565b80359173ffffffffffffffffffffffffffffffffffffffff8316830361288e5773ffffffffffffffffffffffffffffffffffffffff612c8a93168152602082013560208201526133f06133e46133ab61339061337d60408701876132ce565b61012060408801526101208701916130c2565b61339d60608701876132ce565b9086830360608801526130c2565b6080850135608085015260a085013560a085015260c085013560c08501526133d660e08601866132ce565b9085830360e08701526130c2565b926101008101906132ce565b916101008185039101526130c2565b3d6108008111613423575b604051906020818301016040528082525f602083013e90565b5061080061340a565b5f8060405160208101907f3a61584e00000000000000000000000000000000000000000000000000000000825260048152613468602482612a74565b5190826110015af1613478612d8b565b901580156134a8575b6134a25760208180518101031261288e5760200151801515810361288e5790565b50600190565b50602081511415613481565b73ffffffffffffffffffffffffffffffffffffffff7f0000000000000000000000000000000000000000000000000000000000000000163014806135b4575b1561351c577f000000000000000000000000000000000000000000000000000000000000000090565b60405160208101907f8b73c3c69bb8fe3d512ecc4cf759cc79239f7b179b0ffacaa9a75d522b39400f82527f000000000000000000000000000000000000000000000000000000000000000060408201527f000000000000000000000000000000000000000000000000000000000000000060608201524660808201523060a082015260a081526135ae60c082612a74565b51902090565b507f000000000000000000000000000000000000000000000000000000000000000046146134f3565b9093929384831161288e57841161288e578101920390565b613602604082018261327d565b909161360e8284614cd0565b1561370c5761361f6136249161325c565b614d25565b916014821161366d5750506040517fffffffffffffffffffffffffffffffffffffffff000000000000000000000000602082019260601b168252601481526135ae603482612a74565b8160141161288e5760206135ae916040519384917fffffffffffffffffffffffffffffffffffffffff0000000000000000000000008484019760601b16875260147fffffffffffffffffffffffffffffffffffffffffffffffffffffffffffffffec83019101603484013781015f8382015203017fffffffffffffffffffffffffffffffffffffffffffffffffffffffffffffffe08101835282612a74565b5050505f90565b92919092835f5b8181106137275750505050565b6137318185613082565b5161373d828486613015565b5f915a81519273ffffffffffffffffffffffffffffffffffffffff6137618261325c565b168452602081013560208501526080810135936fffffffffffffffffffffffffffffffff8560801c951694604082019060608301968752815260c0820160a0840135815260c0840135906fffffffffffffffffffffffffffffffff8260801c921691610120850190610100860193845281526137e060e087018761327d565b90816142b6575b50506040516137f587612df5565b9960208a019a8b528160405285519586855117825117926effffffffffffffffffffffffffffff60808a01948551179560a08b0196875117895117905117116142545750519051019051019051019051019051029560408601918783528973ffffffffffffffffffffffffffffffffffffffff60e0895161388a8b848351169561388260408d018d61327d565b929091615399565b015116985f99801561422d575b89516040810151905173ffffffffffffffffffffffffffffffffffffffff1680916040519d8e808d8b519360208301947f19822f7c00000000000000000000000000000000000000000000000000000000865260248401926138f893615858565b037fffffffffffffffffffffffffffffffffffffffffffffffffffffffffffffffe0810182526139289082612a74565b51905f6020948194f15f519c3d602003614225575b6040521561413a5750156140c0575b505073ffffffffffffffffffffffffffffffffffffffff8451166020850151905f52600160205260405f2077ffffffffffffffffffffffffffffffffffffffffffffffff8260401c165f5260205267ffffffffffffffff60405f20918254926139b484612d51565b9055160361405b575a860311613ff65773ffffffffffffffffffffffffffffffffffffffff60e0606094015116613ce7575b505073ffffffffffffffffffffffffffffffffffffffff949260a085936080936060613a1d9801520135905a900301910152615105565b92909116613c8257613bb65750613a4873ffffffffffffffffffffffffffffffffffffffff91615105565b92909116613b5157613a5d575060010161371a565b613aec5760a490604051907f220266b6000000000000000000000000000000000000000000000000000000008252600482015260406024820152602160448201527f41413332207061796d61737465722065787069726564206f72206e6f7420647560648201527f65000000000000000000000000000000000000000000000000000000000000006084820152fd5b608490604051907f220266b6000000000000000000000000000000000000000000000000000000008252600482015260406024820152602060448201527f41413337207061796d617374657220696e76616c20626c6f636b2072616e67656064820152fd5b608483604051907f220266b6000000000000000000000000000000000000000000000000000000008252600482015260406024820152601460448201527f41413334207369676e6174757265206572726f720000000000000000000000006064820152fd5b82608491613c2057604051907f220266b6000000000000000000000000000000000000000000000000000000008252600482015260406024820152601760448201527f414132322065787069726564206f72206e6f74206475650000000000000000006064820152fd5b604051907f220266b6000000000000000000000000000000000000000000000000000000008252600482015260406024820152601e60448201527f41413237206f7574736964652076616c696420626c6f636b2072616e676500006064820152fd5b608484604051907f220266b6000000000000000000000000000000000000000000000000000000008252600482015260406024820152601460448201527f41413234207369676e6174757265206572726f720000000000000000000000006064820152fd5b909c9b9a99989796505a9085519d60e08f015173ffffffffffffffffffffffffffffffffffffffff168151613d1b9161587a565b15613f9157613d6e7f52b7512c00000000000000000000000000000000000000000000000000000000999a9b9c9d9e9f608001519261097960405193849251905190602084019d8e528960248501615858565b5f8088518b82608073ffffffffffffffffffffffffffffffffffffffff60e08501511693015192865193f1983d90815f843e519482519a604084019b8c519115613f135760401490811591613ee1575b50613e645750601f7fffffffffffffffffffffffffffffffffffffffffffffffffffffffffffffffe09101160191826040525a900311613e025750948260a06139e6565b80887f220266b60000000000000000000000000000000000000000000000000000000060849352600482015260406024820152602060448201527f41413336206f76657220706d566572696669636174696f6e4761734c696d69746064820152fd5b8b610b2b613e706133ff565b6040519384937f65c8fd4d00000000000000000000000000000000000000000000000000000000855260048501526024840152601d60648401527f41413335206d616c666f726d6564207061796d61737465722064617461000000608484015260a0604484015260a4830190612c30565b7fffffffffffffffffffffffffffffffffffffffffffffffffffffffffffffffe09150601f011681018214155f613dbe565b828e610b2b613f206133ff565b6040519384937f65c8fd4d00000000000000000000000000000000000000000000000000000000855260048501526024840152600d60648401527f4141333320726576657274656400000000000000000000000000000000000000608484015260a0604484015260a4830190612c30565b608489604051907f220266b6000000000000000000000000000000000000000000000000000000008252600482015260406024820152601e60448201527f41413331207061796d6173746572206465706f73697420746f6f206c6f7700006064820152fd5b608489604051907f220266b6000000000000000000000000000000000000000000000000000000008252600482015260406024820152601e60448201527f41413236206f76657220766572696669636174696f6e4761734c696d697400006064820152fd5b60848a604051907f220266b6000000000000000000000000000000000000000000000000000000008252600482015260406024820152601a60448201527f4141323520696e76616c6964206163636f756e74206e6f6e63650000000000006064820152fd5b6140c99161587a565b156140d5575f8061394c565b60848a604051907f220266b6000000000000000000000000000000000000000000000000000000008252600482015260406024820152601760448201527f41413231206469646e2774207061792070726566756e640000000000000000006064820152fd5b8d903b6141a657608490604051907f220266b6000000000000000000000000000000000000000000000000000000008252600482015260406024820152601960448201527f41413230206163636f756e74206e6f74206465706c6f796564000000000000006064820152fd5b6141ae6133ff565b90610b2b6040519283927f65c8fd4d000000000000000000000000000000000000000000000000000000008452600484015260606024840152600d60648401527f4141323320726576657274656400000000000000000000000000000000000000608484015260a0604484015260a4830190612c30565b5f915061393d565b9950815f525f60205260405f20548181115f1461424d57505f5b99613897565b8103614247565b808f7f220266b60000000000000000000000000000000000000000000000000000000060849352600482015260406024820152601860448201527f41413934206761732076616c756573206f766572666c6f7700000000000000006064820152fd5b60348210614347578160141161288e57803560601c916024811061288e5760148201359060341161288e576fffffffffffffffffffffffffffffffff60248193013560801c1660a089015260801c166080870152801561431c5760e08601525f806137e7565b7fd8ccb292000000000000000000000000000000000000000000000000000000005f5260045260245ffd5b507f120aaab5000000000000000000000000000000000000000000000000000000005f5260045260245ffd5b9092915a6020820180515f5d60608301516040519687614396606083018361327d565b5f60038211614aaf575b7fffffffff00000000000000000000000000000000000000000000000000000000167f8dd7712f0000000000000000000000000000000000000000000000000000000003614941575050505f6144ab61459f61443961446b60209588516040519384927f8dd7712f000000000000000000000000000000000000000000000000000000008a85015260406024850152606484019061331e565b906044830152037fffffffffffffffffffffffffffffffffffffffffffffffffffffffffffffffe08101835282612a74565b6109796040519384927e42dc5300000000000000000000000000000000000000000000000000000000888501526102006024850152610224840190612c30565b61456e604484018c60806101a091610120815173ffffffffffffffffffffffffffffffffffffffff8151168652602081015160208701526040810151604087015260608101516060870152838101518487015260a081015160a087015260c081015160c087015273ffffffffffffffffffffffffffffffffffffffff60e08201511660e087015261010081015161010087015201516101208501526020810151610140850152604081015161016085015260608101516101808501520151910152565b7fffffffffffffffffffffffffffffffffffffffffffffffffffffffffffffffdc8382030161020484015287612c30565b828151910182305af15f5197604052156145bb575b5050505050565b909192939495505f3d602014614934575b7fdeaddead00000000000000000000000000000000000000000000000000000000810361465857608486604051907f220266b6000000000000000000000000000000000000000000000000000000008252600482015260406024820152600f60448201527f41413935206f7574206f662067617300000000000000000000000000000000006064820152fd5b9091929394507fdeadaa510000000000000000000000000000000000000000000000000000000081145f146146c2575050506146a661469b6146b6925a90612d7e565b608084015190612cce565b6040830151836126b08295614c80565b905b5f808080806145b4565b7fdeadba51000000000000000000000000000000000000000000000000000000000361476357506147056146fa61475d935a90612d7e565b608085015190612cce565b906040840151938491518151907fd46c64f95e16063d947c02a0df97c546ed9539df9f9bd080e20cb76afb040b2160208073ffffffffffffffffffffffffffffffffffffffff855116940151604051908152a3614b7e565b906146b8565b916147d39160405190518551907ff62676f440ff169a3a9afdbf812e89e7f95975ee8e5c31214ffdef631c5f4792602073ffffffffffffffffffffffffffffffffffffffff8451169301516147b66133ff565b906147c660405192839283612c73565b0390a36040525a90612d7e565b6147e36080840191825190612cce565b915f905a92855161010081015161012082015148018082105f1461492c5750955b61483173ffffffffffffffffffffffffffffffffffffffff60e08401511693518203606084015190614b64565b01925f92806148fd5750505173ffffffffffffffffffffffffffffffffffffffff16935b5a900301019283026040850151928184105f146148b1575050806148845750908161475d92936126b081614c80565b807f4e487b7100000000000000000000000000000000000000000000000000000000602492526021600452fd5b6148e6908284939795039073ffffffffffffffffffffffffffffffffffffffff165f525f60205260405f209081540180915590565b50614884575090825f6148f893614bff565b61475d565b9591905161490c575b50614855565b935090506149255a9360a05f955a900391015190614b64565b905f614906565b905095614804565b5060205f803e5f516145cc565b614aa69350614a7a91614986917e42dc5300000000000000000000000000000000000000000000000000000000602086015261020060248601526102248501916130c2565b614a49604484018960806101a091610120815173ffffffffffffffffffffffffffffffffffffffff8151168652602081015160208701526040810151604087015260608101516060870152838101518487015260a081015160a087015260c081015160c087015273ffffffffffffffffffffffffffffffffffffffff60e08201511660e087015261010081015161010087015201516101208501526020810151610140850152604081015161016085015260608101516101808501520151910152565b7fffffffffffffffffffffffffffffffffffffffffffffffffffffffffffffffdc8382030161020484015284612c30565b037fffffffffffffffffffffffffffffffffffffffffffffffffffffffffffffffe08101895288612a74565b60205f8861459f565b5081356143a0565b73ffffffffffffffffffffffffffffffffffffffff168015614b39575f805d5f80808085855af1614ae6612d8b565b9015614af157505050565b610b2b906040519384937f40848e6100000000000000000000000000000000000000000000000000000000855260048501526024840152606060448401526064830190612c30565b7f1a3b45fd000000000000000000000000000000000000000000000000000000005f5260045260245ffd5b9081811115614b7857606491829103020490565b50505f90565b9190917f49628fd1471006c1482da88028e9ce4dbb080b815c9b0344d39e5a8e6ec1419f6080602083015192519473ffffffffffffffffffffffffffffffffffffffff86511694602073ffffffffffffffffffffffffffffffffffffffff60e089015116970151916040519283525f602084015260408301526060820152a4565b9060807f49628fd1471006c1482da88028e9ce4dbb080b815c9b0344d39e5a8e6ec1419f91602084015193519573ffffffffffffffffffffffffffffffffffffffff87511695602073ffffffffffffffffffffffffffffffffffffffff60e08a015116980151926040519384521515602084015260408301526060820152a4565b60208101519051907f67b4fa9642f42120bf031f3051d1824b0fe25627945b27b8a6a65d5761d5482e60208073ffffffffffffffffffffffffffffffffffffffff855116940151604051908152a3565b90600211614d2057357fffffffffffffffffffffffffffffffffffffffff000000000000000000000000167f77020000000000000000000000000000000000000000000000000000000000001490565b505f90565b60175f80833c5f51907fef010000000000000000000000000000000000000000000000000000000000007fffffff0000000000000000000000000000000000000000000000000000000000831603614d94575060481c73ffffffffffffffffffffffffffffffffffffffff1690565b8073ffffffffffffffffffffffffffffffffffffffff913b15614ddd577f9f4e4cc9000000000000000000000000000000000000000000000000000000005f521660045260245ffd5b7fe5819b95000000000000000000000000000000000000000000000000000000005f521660045260245ffd5b60ff8114614e685760ff811690601f8211614e405760405191614e2d604084612a74565b6020808452838101919036833783525290565b7fb3512b0c000000000000000000000000000000000000000000000000000000005f5260045ffd5b506040515f6002548060011c9160018216918215614f75575b602084108314614f48578385528492908115614f0b5750600114614eac575b612c8a92500382612a74565b5060025f90815290917f405787fa12a823e0f2b7631cc41b3ba8828b3321ca811111fa75cd3aa3bb5ace5b818310614eef575050906020612c8a92820101614ea0565b6020919350806001915483858801015201910190918392614ed7565b60209250612c8a9491507fffffffffffffffffffffffffffffffffffffffffffffffffffffffffffffff001682840152151560051b820101614ea0565b7f4e487b71000000000000000000000000000000000000000000000000000000005f52602260045260245ffd5b92607f1692614e81565b60ff8114614fa35760ff811690601f8211614e405760405191614e2d604084612a74565b506040515f6003548060011c9160018216918215615045575b602084108314614f48578385528492908115614f0b5750600114614fe657612c8a92500382612a74565b5060035f90815290917fc2575a0e9e593c00f959f8c92f12db2869c3395a3b0502d05e2516446f71f85b5b818310615029575050906020612c8a92820101614ea0565b6020919350806001915483858801015201910190918392615011565b92607f1692614fbc565b6150598282615201565b8061506a5750816040519182372090565b7ffffffffffffffffffffffffffffffffffffffffffffffffffffffffffffffffe919203604051927ffffffffffffffffffffffffffffffffffffffffffffffffffffffffffffffff682019084377f22e325a2974396560000000000000000000000000000000000000000000000007ffffffffffffffffffffffffffffffffffffffffffffffffffffffffffffffff6828501015201902090565b80156151f8575f6040805161511981612a58565b828152826020820152015273ffffffffffffffffffffffffffffffffffffffff81169065ffffffffffff8160a01c169081156151ea575b60409060d01c91815161516281612a58565b84815283602082015265ffffffffffff8216928391015265800000000000831015806151da575b156151bd57657fffffffffff91501643119081156151aa575b509060019092565b657fffffffffff9150164311155f6151a2565b5042119081156151cf575b50905f9092565b90504211155f6151c8565b5065800000000000821015615189565b65ffffffffffff9150615150565b505f905f905f90565b603e8210614b78577f22e325a2974396560000000000000000000000000000000000000000000000007fffffffffffffffff000000000000000000000000000000000000000000000000615279847ffffffffffffffffffffffffffffffffffffffffffffffffffffffffffffffff8810181866135dd565b90358281169160088110615384575b50501603614b7857816152bf91817ffffffffffffffffffffffffffffffffffffffffffffffffffffffffffffffff68101916135dd565b90357fffff0000000000000000000000000000000000000000000000000000000000008116916002811061534f575b505060f01c907fffffffffffffffffffffffffffffffffffffffffffffffffffffffffffffffc281018211615321575090565b7f07b9a191000000000000000000000000000000000000000000000000000000005f5260045260245260445ffd5b7fffff0000000000000000000000000000000000000000000000000000000000009250829060020360031b1b16165f806152ee565b839250829060080360031b1b16165f80615288565b929091925f826153aa575050505050565b83519473ffffffffffffffffffffffffffffffffffffffff865116956153d08583614cd0565b61570257506014841061569d578360141161569957803560601c93863b6156635761543c9160209160408851015190856040518096819582947f570e1a3600000000000000000000000000000000000000000000000000000000845288600485015260248401916130c2565b039273ffffffffffffffffffffffffffffffffffffffff7f00000000000000000000000000000000000000000000000000000000000000001690f19182156156575791615638575b5073ffffffffffffffffffffffffffffffffffffffff811680156155d357850361556e573b15615509575060407fd51a9c61267aa6196961883ecf5ff2da6619c37dac0fa92122513fb32c032d2d9173ffffffffffffffffffffffffffffffffffffffff60e06020860151955101511682519182526020820152a35f808080806145b4565b608490604051907f220266b6000000000000000000000000000000000000000000000000000000008252600482015260406024820152602060448201527f4141313520696e6974436f6465206d757374206372656174652073656e6465726064820152fd5b608482604051907f220266b6000000000000000000000000000000000000000000000000000000008252600482015260406024820152602060448201527f4141313420696e6974436f6465206d7573742072657475726e2073656e6465726064820152fd5b608483604051907f220266b6000000000000000000000000000000000000000000000000000000008252600482015260406024820152601b60448201527f4141313320696e6974436f6465206661696c6564206f72204f4f4700000000006064820152fd5b615651915060203d602011611762576117548183612a74565b5f615484565b604051903d90823e3d90fd5b50505050906020807fa39bcda08ffd11bafb11c4f170ef24fc6dc1a9d1b0394d90dbd19e0b919050e992015192604051908152a3565b5080fd5b608483604051907f220266b6000000000000000000000000000000000000000000000000000000008252600482015260406024820152601760448201527f4141393920696e6974436f646520746f6f20736d616c6c0000000000000000006064820152fd5b919594939092506014811161571a575b505050505050565b604073ffffffffffffffffffffffffffffffffffffffff7f0000000000000000000000000000000000000000000000000000000000000000169201518160141161288e57823b1561288e576157d5935f80946040518097819682957fc09ad0d90000000000000000000000000000000000000000000000000000000084528c60048501526040602485015260147fffffffffffffffffffffffffffffffffffffffffffffffffffffffffffffffec60448601930191016130c2565b0393f1801561584d57615838575b507f7c9f9ade6a03a0bba484e52df872467a270e798ffc1adab9dfaa8d0e627f054473ffffffffffffffffffffffffffffffffffffffff602061582585614d25565b93015192169380a45f8080808080615712565b6158459193505f90612a74565b5f915f6157e3565b6040513d5f823e3d90fd5b6158706040929594939560608352606083019061331e565b9460208201520152565b73ffffffffffffffffffffffffffffffffffffffff165f525f60205260405f2090815481811061370c5703905560019056fea26469706673582212201e57d8a1dbd6b4845aa8d7b9bfbae760fff22f8a778f3064a6830ab8793c58e464736f6c634300081c003360a08060405234602f57336080526104ba9081610034823960805181818160c30152818161023701526102cf0152f35b5f80fdfe60806040526004361015610011575f80fd5b5f3560e01c8063570e1a361461025b578063b0d691fe146101ed5763c09ad0d91461003a575f80fd5b346101e95760407ffffffffffffffffffffffffffffffffffffffffffffffffffffffffffffffffc3601126101e95760043573ffffffffffffffffffffffffffffffffffffffff811681036101e95760243567ffffffffffffffff81116101e957366023820112156101e9575f916100bd8392369060248160040135910161038a565b906101027f0000000000000000000000000000000000000000000000000000000000000000303373ffffffffffffffffffffffffffffffffffffffff8316331461042c565b82602083519301915af11561011357005b3d61080081116101e0575b60c460405160208382010160405282815260208101925f843e7fffffffffffffffffffffffffffffffffffffffffffffffffffffffffffffffe0601f6040519485937f65c8fd4d0000000000000000000000000000000000000000000000000000000085525f6004860152606060248601528260648601527f4141313320454950373730322073656e64657220696e6974206661696c656400608486015260a060448601525180918160a48701528686015e5f85828601015201168101030190fd5b5061080061011e565b5f80fd5b346101e9575f7ffffffffffffffffffffffffffffffffffffffffffffffffffffffffffffffffc3601126101e957602060405173ffffffffffffffffffffffffffffffffffffffff7f0000000000000000000000000000000000000000000000000000000000000000168152f35b346101e95760207ffffffffffffffffffffffffffffffffffffffffffffffffffffffffffffffffc3601126101e95760043567ffffffffffffffff81116101e957366023820112156101e95780600401359067ffffffffffffffff82116101e95736602483830101116101e9575f9161030e7f0000000000000000000000000000000000000000000000000000000000000000303373ffffffffffffffffffffffffffffffffffffffff8316331461042c565b806014116101e95760209161034b5f927fffffffffffffffffffffffffffffffffffffffffffffffffffffffffffffffec3691016038840161038a565b90826024858451940192013560601c5af1610382575b60209073ffffffffffffffffffffffffffffffffffffffff60405191168152f35b505f51610361565b92919267ffffffffffffffff82116103ff57604051917fffffffffffffffffffffffffffffffffffffffffffffffffffffffffffffffe0603f81601f8401160116830183811067ffffffffffffffff8211176103ff576040528294818452818301116101e9578281602093845f960137010152565b7f4e487b71000000000000000000000000000000000000000000000000000000005f52604160045260245ffd5b1561043657505050565b73ffffffffffffffffffffffffffffffffffffffff92918380927ffe34a6d3000000000000000000000000000000000000000000000000000000005f5216600452166024521660445260645ffdfea2646970667358221220c3bcdd4a7fb2f4c68f268da752708db0fc70df7641c1039bf8218ce8549d900364736f6c634300081c0033"
}