{
  "address": "0xD726193AC6aD2FEBd01966393cA67D8f15E2A067",
  "abi": [
    {
      "inputs": [
        {
          "internalType": "contract IEntryPoint",
          "name": "anEntryPoint",
          "type": "address"
        }
      ],
      "stateMutability": "nonpayable",
      "type": "constructor"
    },
    {
      "inputs": [],
      "name": "ECDSAInvalidSignature",
      "type": "error"
    },
    {
      "inputs": [
        {
          "internalType": "uint256",
          "name": "length",
          "type": "uint256"
        }
      ],
      "name": "ECDSAInvalidSignatureLength",
      "type": "error"
    },
    {
      "inputs": [
        {
          "internalType": "bytes32",
          "name": "s",
          "type": "bytes32"
        }
      ],
      "name": "ECDSAInvalidSignatureS",
      "type": "error"
    },
    {
      "inputs": [
        {
          "internalType": "uint256",
          "name": "index",
          "type": "uint256"
        },
        {
          "internalType": "bytes",
          "name": "error",
          "type": "bytes"
        }
      ],
      "name": "ExecuteError",
      "type": "error"
    },
    {
      "inputs": [
        {
          "internalType": "address",
          "name": "msgSender",
          "type": "address"
        },
        {
          "internalType": "address",
          "name": "entity",
          "type": "address"
        },
        {
          "internalType": "address",
          "name": "entryPoint",
          "type": "address"
        }
      ],
      "name": "NotFromEntryPoint",
      "type": "error"
    },
    {
      "stateMutability": "payable",
      "type": "fallback"
    },
    {
      "inputs": [],
      "name": "entryPoint",
      "outputs": [
        {
          "internalType": "contract IEntryPoint",
          "name": "",
          "type": "address"
        }
      ],
      "stateMutability": "view",
      "type": "function"
    },
    {
      "inputs": [
        {
          "internalType": "address",
          "name": "target",
          "type": "address"
        },
        {
          "internalType": "uint256",
          "name": "value",
          "type": "uint256"
        },
        {
          "internalType": "bytes",
          "name": "data",
          "type": "bytes"
        }
      ],
      "name": "execute",
      "outputs": [],
      "stateMutability": "nonpayable",
      "type": "function"
    },
    {
      "inputs": [
        {
          "components": [
            {
              "internalType": "address",
              "name": "target",
              "type": "address"
            },
            {
              "internalType": "uint256",
              "name": "value",
              "type": "uint256"
            },
            {
              "internalType": "bytes",
              "name": "data",
              "type": "bytes"
            }
          ],
          "internalType": "struct BaseAccount.Call[]",
          "name": "calls",
          "type": "tuple[]"
        }
      ],
      "name": "executeBatch",
      "outputs": [],
      "stateMutability": "nonpayable",
      "type": "function"
    },
    {
      "inputs": [],
      "name": "getNonce",
      "outputs": [
        {
          "internalType": "uint256",
          "name": "",
          "type": "uint256"
        }
      ],
      "stateMutability": "view",
      "type": "function"
    },
    {
      "inputs": [
        {
          "internalType": "bytes32",
          "name": "hash",
          "type": "bytes32"
        },
        {
          "internalType": "bytes",
          "name": "signature",
          "type": "bytes"
        }
      ],
      "name": "isValidSignature",
      "outputs": [
        {
          "internalType": "bytes4",
          "name": "magicValue",
          "type": "bytes4"
        }
      ],
      "stateMutability": "view",
      "type": "function"
    },
    {
      "inputs": [
        {
          "internalType": "address",
          "name": "",
          "type": "address"
        },
        {
          "internalType": "address",
          "name": "",
          "type": "address"
        },
        {
          "internalType": "uint256[]",
          "name": "",
          "type": "uint256[]"
        },
        {
          "internalType": "uint256[]",
          "name": "",
          "type": "uint256[]"
        },
        {
          "internalType": "bytes",
          "name": "",
          "type": "bytes"
        }
      ],
      "name": "onERC1155BatchReceived",
      "outputs": [
        {
          "internalType": "bytes4",
          "name": "",
          "type": "bytes4"
        }
      ],
      "stateMutability": "nonpayable",
      "type": "function"
    },
    {
      "inputs": [
        {
          "internalType": "address",
          "name": "",
          "type": "address"
        },
        {
          "internalType": "address",
          "name": "",
          "type": "address"
        },
        {
          "internalType": "uint256",
          "name": "",
          "type": "uint256"
        },
        {
          "internalType": "uint256",
          "name": "",
          "type": "uint256"
        },
        {
          "internalType": "bytes",
          "name": "",
          "type": "bytes"
        }
      ],
      "name": "onERC1155Received",
      "outputs": [
        {
          "internalType": "bytes4",
          "name": "",
          "type": "bytes4"
        }
      ],
      "stateMutability": "nonpayable",
      "type": "function"
    },
    {
      "inputs": [
        {
          "internalType": "address",
          "name": "",
          "type": "address"
        },
        {
          "internalType": "address",
          "name": "",
          "type": "address"
        },
        {
          "internalType": "uint256",
          "name": "",
          "type": "uint256"
        },
        {
          "internalType": "bytes",
          "name": "",
          "type": "bytes"
        }
      ],
      "name": "onERC721Received",
      "outputs": [
        {
          "internalType": "bytes4",
          "name": "",
          "type": "bytes4"
        }
      ],
      "stateMutability": "nonpayable",
      "type": "function"
    },
    {
      "inputs": [
        {
          "internalType": "bytes4",
          "name": "id",
          "type": "bytes4"
        }
      ],
      "name": "supportsInterface",
      "outputs": [
        {
          "internalType": "bool",
          "name": "",
          "type": "bool"
        }
      ],
      "stateMutability": "pure",
      "type": "function"
    },
    {
      "inputs": [
        {
          "components": [
            {
              "internalType": "address",
              "name": "sender",
              "type": "address"
            },
            {
              "internalType": "uint256",
              "name": "nonce",
              "type": "uint256"
            },
            {
              "internalType": "bytes",
              "name": "initCode",
              "type": "bytes"
            },
            {
              "internalType": "bytes",
              "name": "callData",
              "type": "bytes"
            },
            {
              "internalType": "bytes32",
              "name": "accountGasLimits",
              "type": "bytes32"
            },
            {
              "internalType": "uint256",
              "name": "preVerificationGas",
              "type": "uint256"
            },
            {
              "internalType": "bytes32",
              "name": "gasFees",
              "type": "bytes32"
            },
            {
              "internalType": "bytes",
              "name": "paymasterAndData",
              "type": "bytes"
            },
            {
              "internalType": "bytes",
              "name": "signature",
              "type": "bytes"
            }
          ],
          "internalType": "struct PackedUserOperation",
          "name": "userOp",
          "type": "tuple"
        },
        {
          "internalType": "bytes32",
          "name": "userOpHash",
          "type": "bytes32"
        },
        {
          "internalType": "uint256",
          "name": "missingAccountFunds",
          "type": "uint256"
        }
      ],
      "name": "validateUserOp",
      "outputs": [
        {
          "internalType": "uint256",
          "name": "validationData",
          "type": "uint256"
        }
      ],
      "stateMutability": "nonpayable",
      "type": "function"
    },
    {
      "stateMutability": "payable",
      "type": "receive"
    }
  ],
  "transactionHash": "0x556caf5cf7a189880942d0839276513a55b0c0b5cd7656cf72bdcbfec17a6c94",
  "args": [
    "0x4337091F514fF8123bEFb8a67Ec3bF73D0B19385"
  ],
  "numDeployments": 2,
  "solcInputHash": "e34ad5bf8ffe83a29448dbf80d2f510e",
  "bytecode": "0x60a03461008657601f610f4238819003918201601f19168301916001600160401b0383118484101761008a5780849260209460405283398101031261008657516001600160a01b038116810361008657608052604051610ea3908161009f8239608051818181610194015281816103d70152818161064401528181610c470152610c770152f35b5f80fd5b634e487b7160e01b5f52604160045260245ffdfe6080806040526004361015610011575b005b5f3560e01c90816301ffc9a71461088057508063150b7a02146107f45780631626ba7e1461070557806319822f7c146105a957806334fcd5be146103fb578063b0d691fe1461038d578063b61d27f6146102da578063bc197c811461020c578063d087d288146101175763f23a6e611461008757005b346101135760a07ffffffffffffffffffffffffffffffffffffffffffffffffffffffffffffffffc360112610113576100be6109cf565b506100c76109f2565b5060843567ffffffffffffffff8111610113576100e8903690600401610af3565b5060206040517ff23a6e61000000000000000000000000000000000000000000000000000000008152f35b5f80fd5b34610113575f7ffffffffffffffffffffffffffffffffffffffffffffffffffffffffffffffffc360112610113576040517f35567e1a0000000000000000000000000000000000000000000000000000000081523060048201525f602482015260208160448173ffffffffffffffffffffffffffffffffffffffff7f0000000000000000000000000000000000000000000000000000000000000000165afa8015610201575f906101ce575b602090604051908152f35b506020813d6020116101f9575b816101e860209383610a15565b8101031261011357602090516101c3565b3d91506101db565b6040513d5f823e3d90fd5b346101135760a07ffffffffffffffffffffffffffffffffffffffffffffffffffffffffffffffffc360112610113576102436109cf565b5061024c6109f2565b5060443567ffffffffffffffff81116101135761026d903690600401610b11565b5060643567ffffffffffffffff81116101135761028e903690600401610b11565b5060843567ffffffffffffffff8111610113576102af903690600401610af3565b5060206040517fbc197c81000000000000000000000000000000000000000000000000000000008152f35b346101135760607ffffffffffffffffffffffffffffffffffffffffffffffffffffffffffffffffc360112610113576103116109cf565b60443567ffffffffffffffff8111610113573660238201121561011357806004013567ffffffffffffffff8111610113573660248284010111610113575f92610369849361035d610c22565b5a936024369201610abd565b916020835193019160243591f11561037d57005b610385610cb2565b602081519101fd5b34610113575f7ffffffffffffffffffffffffffffffffffffffffffffffffffffffffffffffffc36011261011357602060405173ffffffffffffffffffffffffffffffffffffffff7f0000000000000000000000000000000000000000000000000000000000000000168152f35b346101135760207ffffffffffffffffffffffffffffffffffffffffffffffffffffffffffffffffc3601126101135760043567ffffffffffffffff8111610113573660238201121561011357806004013567ffffffffffffffff8111610113573660248260051b8401011161011357610472610c22565b5f7fffffffffffffffffffffffffffffffffffffffffffffffffffffffffffffff7d83360301905b8281101561000f5760248160051b850101358281121561011357840160248101803573ffffffffffffffffffffffffffffffffffffffff8116810361011357826104f96104ee5f9594606487960190610b79565b91905a923691610abd565b92604460208551950193013591f1156105145760010161049a565b6001830361052457610385610cb2565b606461052e610cb2565b917fffffffffffffffffffffffffffffffffffffffffffffffffffffffffffffffe0601f60206040519586947f5a1546750000000000000000000000000000000000000000000000000000000086526004860152604060248601528051918291826044880152018686015e5f85828601015201168101030190fd5b346101135760607ffffffffffffffffffffffffffffffffffffffffffffffffffffffffffffffffc3601126101135760043567ffffffffffffffff8111610113576101207ffffffffffffffffffffffffffffffffffffffffffffffffffffffffffffffffc82360301126101135760209061069461068b61068361067c6044359461066e73ffffffffffffffffffffffffffffffffffffffff7f0000000000000000000000000000000000000000000000000000000000000000163033823314610bca565b610104810190600401610b79565b3691610abd565b602435610ccc565b90929192610d06565b73ffffffffffffffffffffffffffffffffffffffff1630036106fd575f905b806106c2575b50604051908152f35b5f80808093335af1503d156106f8573d6106db81610a83565b906106e96040519283610a15565b81525f833d92013e5b826106b9565b6106f2565b6001906106b3565b346101135760407ffffffffffffffffffffffffffffffffffffffffffffffffffffffffffffffffc3601126101135760243567ffffffffffffffff81116101135761068b61075a610762923690600401610af3565b600435610ccc565b73ffffffffffffffffffffffffffffffffffffffff1630036107cc5760207f1626ba7e000000000000000000000000000000000000000000000000000000005b7fffffffff0000000000000000000000000000000000000000000000000000000060405191168152f35b60207fffffffff000000000000000000000000000000000000000000000000000000006107a2565b346101135760807ffffffffffffffffffffffffffffffffffffffffffffffffffffffffffffffffc3601126101135761082b6109cf565b506108346109f2565b5060643567ffffffffffffffff811161011357610855903690600401610af3565b5060206040517f150b7a02000000000000000000000000000000000000000000000000000000008152f35b346101135760207ffffffffffffffffffffffffffffffffffffffffffffffffffffffffffffffffc36011261011357600435907fffffffff00000000000000000000000000000000000000000000000000000000821680920361011357817f01ffc9a700000000000000000000000000000000000000000000000000000000602093149081156109a5575b811561097b575b8115610951575b8115610927575b5015158152f35b7f150b7a020000000000000000000000000000000000000000000000000000000091501483610920565b7f4e2312e00000000000000000000000000000000000000000000000000000000081149150610919565b7f1626ba7e0000000000000000000000000000000000000000000000000000000081149150610912565b7f19822f7c000000000000000000000000000000000000000000000000000000008114915061090b565b6004359073ffffffffffffffffffffffffffffffffffffffff8216820361011357565b6024359073ffffffffffffffffffffffffffffffffffffffff8216820361011357565b90601f7fffffffffffffffffffffffffffffffffffffffffffffffffffffffffffffffe0910116810190811067ffffffffffffffff821117610a5657604052565b7f4e487b71000000000000000000000000000000000000000000000000000000005f52604160045260245ffd5b67ffffffffffffffff8111610a5657601f017fffffffffffffffffffffffffffffffffffffffffffffffffffffffffffffffe01660200190565b929192610ac982610a83565b91610ad76040519384610a15565b829481845281830111610113578281602093845f960137010152565b9080601f8301121561011357816020610b0e93359101610abd565b90565b9080601f830112156101135781359167ffffffffffffffff8311610a56578260051b9060405193610b456020840186610a15565b845260208085019282010192831161011357602001905b828210610b695750505090565b8135815260209182019101610b5c565b9035907fffffffffffffffffffffffffffffffffffffffffffffffffffffffffffffffe181360301821215610113570180359067ffffffffffffffff82116101135760200191813603831361011357565b15610bd457505050565b73ffffffffffffffffffffffffffffffffffffffff92918380927ffe34a6d3000000000000000000000000000000000000000000000000000000005f5216600452166024521660445260645ffd5b3033148015610c73575b610c719073ffffffffffffffffffffffffffffffffffffffff7f0000000000000000000000000000000000000000000000000000000000000000169030903390610bca565b565b50337f000000000000000000000000000000000000000000000000000000000000000073ffffffffffffffffffffffffffffffffffffffff1614610c2c565b3d604051906020818301016040528082525f602083013e90565b8151919060418303610cfc57610cf59250602082015190606060408401519301515f1a90610dde565b9192909190565b50505f9160029190565b6004811015610db15780610d18575050565b60018103610d48577ff645eedf000000000000000000000000000000000000000000000000000000005f5260045ffd5b60028103610d7c57507ffce698f7000000000000000000000000000000000000000000000000000000005f5260045260245ffd5b600314610d865750565b7fd78bce0c000000000000000000000000000000000000000000000000000000005f5260045260245ffd5b7f4e487b71000000000000000000000000000000000000000000000000000000005f52602160045260245ffd5b91907f7fffffffffffffffffffffffffffffff5d576e7357a4501ddfe92f46681b20a08411610e62579160209360809260ff5f9560405194855216868401526040830152606082015282805260015afa15610201575f5173ffffffffffffffffffffffffffffffffffffffff811615610e5857905f905f90565b505f906001905f90565b5050505f916003919056fea2646970667358221220e9d698df029f27c0668794ecbf648bc3a9bb767ee559cff4cbbf0d32cc44af6e64736f6c634300081c0033",
  "devdoc": {
    "errors": {
      "ECDSAInvalidSignature()": [
        {
          "details": "The signature derives the `address(0)`."
        }
      ],
      "ECDSAInvalidSignatureLength(uint256)": [
        {
          "details": "The signature has an invalid length."
        }
      ],
      "ECDSAInvalidSignatureS(bytes32)": [
        {
          "details": "The signature has an S value that is in the upper half order."
        }
      ]
    },
    "kind": "dev",
    "methods": {
      "isValidSignature(bytes32,bytes)": {
        "details": "Should return whether the signature provided is valid for the provided data",
        "params": {
          "hash": "Hash of the data to be signed",
          "signature": "Signature byte array associated with _data"
        }
      },
      "onERC721Received(address,address,uint256,bytes)": {
        "details": "See {IERC721Receiver-onERC721Received}. Always returns `IERC721Receiver.onERC721Received.selector`."
      },
      "validateUserOp((address,uint256,bytes,bytes,bytes32,uint256,bytes32,bytes,bytes),bytes32,uint256)": {
        "details": "Must validate caller is the entryPoint.      Must validate the signature and nonce",
        "params": {
          "missingAccountFunds": "- Missing funds on the account's deposit in the entrypoint.                              This is the minimum amount to transfer to the sender(entryPoint) to be                              able to make the call. The excess is left as a deposit in the entrypoint                              for future calls. Can be withdrawn anytime using \"entryPoint.withdrawTo()\".                              In case there is a paymaster in the request (or the current deposit is high                              enough), this value will be zero.",
          "userOp": "- The operation that is about to be executed.",
          "userOpHash": "- Hash of the user's request data. can be used as the basis for signature."
        },
        "returns": {
          "validationData": "      - Packaged ValidationData structure. use `_packValidationData` and                              `_unpackValidationData` to encode and decode.                              <20-byte> aggregatorOrSigFail - 0 for valid signature, 1 to mark signature failure,                                 otherwise, an address of an \"aggregator\" contract.                              <6-byte> validUntil - Last timestamp this operation is valid at, or 0 for \"indefinitely\"                              <6-byte> validAfter - First timestamp this operation is valid                                                    If an account doesn't use time-range, it is enough to                                                    return SIG_VALIDATION_FAILED value (1) for signature failure.                              Note that the validation code cannot use block.timestamp (or block.number) directly."
        }
      }
    },
    "version": 1
  },
  "userdoc": {
    "kind": "user",
    "methods": {
      "entryPoint()": {
        "notice": "Return the entryPoint used by this account. Subclass should return the current entryPoint used by this account."
      },
      "execute(address,uint256,bytes)": {
        "notice": "execute a single call from the account."
      },
      "executeBatch((address,uint256,bytes)[])": {
        "notice": "execute a batch of calls. revert on the first call that fails. If the batch reverts, and it contains more than a single call, then wrap the revert with ExecuteError,  to mark the failing call index."
      },
      "getNonce()": {
        "notice": "Return the account nonce. This method returns the next sequential nonce. For a nonce of a specific key, use `entrypoint.getNonce(account, key)`"
      },
      "validateUserOp((address,uint256,bytes,bytes,bytes32,uint256,bytes32,bytes,bytes),bytes32,uint256)": {
        "notice": "Validate user's signature and nonce the entryPoint will make the call to the recipient only if this validation call returns successfully. signature failure should be reported by returning SIG_VALIDATION_FAILED (1). This allows making a \"simulation call\" without a valid signature Other failures (e.g. nonce mismatch, or invalid signature format) should still revert to signal failure."
      }
    },
    "notice": "Simple7702Account.sol A minimal account to be used with EIP-7702 (for batching) and ERC-4337 (for gas sponsoring)",
    "version": 1
  },
  "storageLayout": {
    "storage": [],
    "types": null
  }
}